S01A000073617274657270726F6A65637468616D64792E737265636F
S11300000C942A000C9450010C947B010C94A601CE
S11300100C9447000C9447000C9447000C94470040
S11300200C9447000C9447000C9447000C94470030
S11300300C9447000C9447000C9447000C94470020
S11300400C9447000C9447000C9447000C94470010
S11300500C94470011241FBECFE5D8E0DEBFCDBF0E
S113006010E0A0E6B0E0E6EAF3E002C005900D92ED
S1130070A836B107D9F720E0A8E6B0E001C01D9288
S1130080A836B207E1F70E9449000C94D1010C9400
S1130090000060E083E390E00E94210142E067E019
S11300A086E390E00E94EA0042E066E086E390E0A6
S11300B00E94EA0042E065E086E390E00E94EA00E4
S11300C00E94AF006091610084EF91E00E943E01C4
S11300D0809161000E94D8002FEF89E698E12150B9
S11300E080409040E1F700C000000E94D4002FEF50
S11300F089E698E1215080409040E1F700C000007B
S113010084EF91E00E944901809360000E94D8002E
S11301102FEF89E698E1215080409040E1F700C03C
S113012000000E94D400CECF682F83E390E00E94A9
S11301302E018FEC97E00197F1F700C0000080E2F8
S113014088BB8FEC97E00197F1F700C0000018BA64
S11301508FE19EE40197F1F700C00000089588E361
S11301600E9494008FEC97E00197F1F700C0000023
S113017081E00E9494008FEC97E00197F1F700C0B2
S113018000008EE00E9494008FEC97E00197F1F755
S113019000C0000080E80E9494008FEC97E0019773
S11301A0F1F700C00000089581E00E9494000895D2
S11301B085BB80EA88BB8FEC97E00197F1F700C01C
S11301C0000080E888BB8FE19EE40197F1F700C04E
S11301D000000895FC014130A1F018F0423009F10B
S11301E00895218181E090E002C0880F991F6A95EB
S11301F0E2F78095922F98239183928189238283B9
S11302000895218181E090E002C0880F991F6A95CA
S1130210E2F7982F9095922391839281892B828380
S11302200895218181E090E002C0880F991F6A95AA
S1130230E2F7922F982B9183928180958923828370
S11302400895CF93DF931F92CDB7DEB769832981D9
S1130250FC0121830F90DF91CF910895CF93DF9319
S11302601F92CDB7DEB769832981FC0122830F90E9
S1130270DF91CF9108958EBB9FBB0895CF93C62F76
S1130280E199FECF0E943B01CDBBE29AE19ACF9166
S11302900895E199FECF0E943B01E09A8DB3089541
S11302A01F920F920FB60F9211242F933F934F93E7
S11302B05F936F937F938F939F93AF93BF93EF93CA
S11302C0FF93E0916600F0916700EF3F8FE0F8073D
S11302D009F00995FF91EF91BF91AF919F918F9193
S11302E07F916F915F914F913F912F910F900FBE2E
S11302F00F901F9018951F920F920FB60F92112412
S11303002F933F934F935F936F937F938F939F9319
S1130310AF93BF93EF93FF93E0916400F091650076
S1130320EF3F8FE0F80709F00995FF91EF91BF9136
S1130330AF919F918F917F916F915F914F913F9179
S11303402F910F900FBE0F901F9018951F920F9230
S11303500FB60F9211242F933F934F935F936F9394
S11303607F938F939F93AF93BF93EF93FF93E0910A
S11303706200F0916300EF3F8FE0F80709F0099500
S1130380FF91EF91BF91AF919F918F917F916F9169
S11303905F914F913F912F910F900FBE0F901F903F
S10903A01895F894FFCF4C
S10B03A67344FF0FFF0FFF0F6A
S9030000FC
